:020000041000EA
:1000000000B5324B212058609868022188439860DF
:10001000D860186158612E4B002199600221596106
:100020000121F02299502B49196001219960352056
:1000300000F044F80222904214D00621196600F024
:1000400034F8196E01211966002018661A6600F04E
:100050002CF8196E196E196E052000F02FF8012189
:100060000842F9D1002199601B49196000215960AB
:100070001A491B48016001219960EB211966A021F2
:10008000196600F012F800219960164914480160C1
:100090000121996001BC002800D000471248134993
:1000A000086003C880F30888084703B5996A0420EC
:1000B0000142FBD001200142F8D103BD02B5186610
:1000C0001866FFF7F2FF186E186E02BD00000240BE
:1000D000000000180000070000035F00212200005C
:1000E000F4000018222000A00001001008ED00E03C
:1000F00000000000000000000000000074B24E7A12
:1001000000200420F7010010C3010010C5010010F9
:10011000C1010010C1010010C1010010C101001097
:10012000C1010010C1010010C1010010015B0010ED
:10013000C1010010C1010010355B0010075D001007
:10014000CD010010CD010010CD010010CD01001037
:10015000CD010010CD010010CD010010CD01001027
:10016000CD010010CD010010CD010010CD01001017
:10017000CD010010CD010010CD010010CD01001007
:10018000CD010010CD010010CD010010CD010010F7
:10019000CD010010CD010010CD010010CD010010E7
:1001A000CD010010CD010010CD010010CD010010D7
:1001B000CD010010CD010010CD010010CD010010C7
:1001C00000BE00BE00BE00BE00BE00BEEFF3058054
:1001D000103800BEF2EB8871CC7E0010F47E001067
:1001E0003402001090A31AE700201F49086006C8D7
:1001F00081F3088810471D48006800282FD10DA4FE
:100200000ECC002902D000F012F8F9E71849194A7B
:10021000002000E001C19142FCD1174988471749ED
:1002200088471749884700BEFDE701C901C29A42C5
:10023000FBD37047F47E0010C000002010030020A4
:1002400044810010000004200000042044810010BC
:10025000001004200010042000000000704709482E
:1002600002F0D6FF0047000008ED00E0000000D0DB
:1002700010030020E8CB00208D1F00105D0300104C
:10028000491F00105756000006005250ABB3605390
:10029000A07C001006005250861C0302C07C001097
:1002A000060052505422A29DD07C001005005250EE
:1002B000DE65F46844810010F8B5C04610B5064C00
:1002C0002378002B07D1054B002B02D0044800E017
:1002D00000BF0123237010BD1004002000000000A7
:1002E000906D0010044B10B5002B03D00349044857
:1002F00000E000BF10BDC046000000001404002054
:10030000906D001070B5062000F062F8D0231B0637
:1003100040225A62D0252D064026AE61FA246400A0
:10032000200004F01BFB6E61200004F017FBF1E7D6
:1003300070B5192000F04CF8D0231B0680229204DF
:100340005A62D02424068025AD04A561FA2004F069
:1003500005FB6561FA2004F001FBF2E7F0B583B01C
:1003600003F0FCFC8025ED000A4C002701970126D4
:10037000009600232A002100074803F09DFF019703
:10038000009600232A002100044803F095FF04F0A2
:1003900031F9FEE7906D00103103001005030010E5
:1003A00010B58300084A944663441C6840226240AA
:1003B000C02414408022520113431C60C000034B30
:1003C0009C466044416010BD04C0014000400140B3
:1003D00010B501238340D022120693629361052158
:1003E000FFF7DEFF10BD0000034B1B680220184022
:1003F000431E9841C0B2704700C00640EFF3108022
:1004000072B6034B1B68002BFBD0BFF35F8F7047A6
:100410002C0100D0BFF35F8F024B00221A6080F3E3
:10042000108870472C0100D0F8B506000C001500AC
:10043000FFF7E4FFE308F718F15C072222400123ED
:1004400093400B4205D1DBB20B433B70FFF7E2FF59
:10045000F8BD2100280001F015FE0000002307E090
:10046000054A9A189200BFF35F8F00211160013393
:100470001F2BF5D97047C04640000034054A10785C
:10048000431CDBB21370172B02D9130010221A7011
:100490007047C04638020020074B9B681030800030
:1004A0001950BFF35F8FBFF35F8F044B00211960BA
:1004B00082F310887047C04600ED00E0240100D0B0
:1004C00010B5091A081F0A4B9C466144094A91421B
:1004D00008D8C30706D440104005400D064B18430A
:1004E00080B210BD054B064AA321064801F030FD3D
:1004F000FC070000FE0F000000E0FFFF986D0010F9
:10050000F86F0010C86D001010B5091A04394C08B6
:10051000090B08D14905490D064A11430180064BD4
:100520002343438010BD054B054AAB21054801F02C
:100530000FFDC04600F0FFFF00F8FFFF146E001033
:10054000CC6F0010C86D001001238340034A10686F
:100550001840431E9841C0B27047C04600E100E019
:10056000002904D0034B1860034B18607047034BFD
:100570001860FBE780E200E000E100E080E100E0DD
:1005800010B5012383401800FFF7EAFF10BD0000FB
:10059000024B9B6810308000C058704700ED00E0AF
:1005A00070B504000D00EFF3108672B60C4B1B689B
:1005B000002BFBD0BFF35F8F2000FFF7E9FF094B53
:1005C000984201D0A84205D1320029002000FFF74F
:1005D00063FF70BD044B054A8621054801F0B8FC55
:1005E000240100D0CD010010246E00101470001002
:1005F000C86D0010F0B5CE46474680B583B0060002
:100600000D00EFF3108872B6564B1B68002BFBD021
:10061000BFF35F8F544B9A6834001034A300D7584F
:10062000524B9F4207D0AF4200D198E00197504B08
:10063000FB1A2F2B09D9424639003000FFF72CFF57
:1006400003B0C0BCB946B046F0BD3000FFF77CFF38
:10065000814600213000FFF793FFBFF35F8FEFF378
:100660000581002901D08C4211D10123019C9C43BA
:100670000022A368AB4212D00622A256002A0DDB4C
:1006800053009B189B002200394CE418F1E73621F7
:10069000384B394AFF31394801F05AFC2200AB424D
:1006A00056D106256557002D38DB6B005B199A0083
:1006B0002F4B9B189A68A260DA79E27106229A564B
:1006C000A2719B795BB2002B0FDA2D48A0806B00E2
:1006D0005B199B00264AD3182A4A11789971157024
:1006E00049463000FFF74CFFA5E7201D6B005B1962
:1006F0009B001F4A9B181A1D9B88D90A1C2907D1E9
:100700005B055B15023359005118FFF7D9FEDDE791
:100710001D4B1E4AB121194801F01AFC002912D1C3
:10072000002A0ED0FF239371194B9380154A13783A
:10073000A371184B0E49641A644163431B0D137077
:10074000CEE70A4FF2E7201D1349FFF7DDFEC7E7AA
:100750006A21124B084AFF31084801F0F9FB034FA8
:1007600069E7C046240100D000ED00E0CD01001093
:100770003C020020386F0010E46F0010C86D0010BC
:1007800001BD0000E5CB0020206F001004700010B8
:1007900001BDFFFFAAAA0000760200206C6F0010C6
:1007A00010B5032304009C43064A9446644422681F
:1007B0001840C000FC3383409A43130081400B4330
:1007C000236010BD00E400E070B5012101432E4B11
:1007D000CB1A2F2B28D8EFF30583002B2BD0EFF368
:1007E000108C72B6294A1268002AFBD0BFF35F8FC3
:1007F000274A0400244D641B64416243120D54B225
:10080000244A92689B00D2588A421BD00022032AB5
:1008100032D853009B189B001B49CB189B795BB2C5
:10082000A3421FD00132F2E7C7211B4B1B4A4900EC
:100830001B4801F08DFB92211A4B184AFF311848D2
:1008400001F086FB134A92681749D150174B1A786A
:1008500082711C70BFF35F8F0C4B00221A608CF307
:10086000108870BD0D005300991889006918FF2683
:100870008E710F4A8A80E9E7D1210E4B074A490061
:10088000074801F065FBC0463C020020240100D06F
:10089000AAAA000000ED00E0746F0010B06F001015
:1008A000C86D00109C6F0010CD010010E5CB00203A
:1008B00001BDFFFFA86F00100022044B02E00449B5
:1008C00002C30132072AFAD97047C04600E400E0AB
:1008D00080808080024B9C466144890001607047A3
:1008E0004000003410B50400FFF7C8FD01002000EF
:1008F000FFF7F0FFFF232371BFF35F8F10BD10B52B
:100900000400FFF7BBFD01002000FFF7E3FFFF231A
:10091000237100236371BFF35F8F10BD70B50500B5
:100920000C00080000F04AFE0949200000F08AFD92
:10093000FFF7A4FD074B9C466044800068602C755F
:10094000D0231B061B786B75A400034BE55070BDCC
:10095000610C001040000034B4C900200A4B1A6832
:10096000EFF3108172B61368002BFCD0BFF35F8FDA
:10097000054B1B68BFF35F8F00221A6081F310885C
:1009800040BF002000217047C8CB002010B50029CF
:1009900022D003681B7B99421ED8174B9C466144AA
:1009A000090183689C4661440C684968002A19D093
:1009B00003681B7B9A4215D883680F4884466244BB
:1009C00012019A1810685368020001208B4201D866
:1009D0000ED00020C0B210BD084B094A3C21094886
:1009E00001F0B6FA054B064A3C21064801F0B0FA80
:1009F000A242EFD8EDE7C046FFFFFF0FB471001031
:100A0000CC7300106C71001010B500291ED0037B50
:100A100099421BD84B005B18033B0468A44663440F
:100A2000002919D0002A1DD0914221D0002A25D0BA
:100A3000047BA24222D80468500080180338201892
:100A40008170197800291FD11A7010BD104B114AFE
:100A50006821114801F07CFA104B114A6F310E48A1
:100A600001F076FA0F4B0E4A70210B4801F070FA34
:100A70000D4B0B4A7121084801F06AFA044B054AF4
:100A80006821054801F064FA41701A70DDE7C0463C
:100A9000D871001038740010F47100104472001006
:100AA00014740010507200105C72001070B50600D3
:100AB0000D001400002914D0002A14D08068736837
:100AC0009847002806D0220029003000FFF79CFF3D
:100AD000280007E02A0021003000FFF795FF2000E2
:100AE00000E0100070BD0800FCE70000F0B583B026
:100AF0000500009201930AAB1C780BAB1F78002C09
:100B000026D003685A7B944207D10123002B19D1C8
:100B1000002C3BD1200003B0F0BD002C0CD01A7B80
:100B2000944209D81A6863001B19033BD3189B78B9
:100B3000002BEBD00123E9E73E4B3F4A68213F48B9
:100B400001F006FA3E4B3F4A67213F4801F000FAA8
:100B500003689C7B002CDBD012D01A7B94420FD808
:100B600062001219033A19688C46624451789973ED
:100B7000002900D1D9730023937053701370C7E715
:100B80002C4B2D4A68212D4801F0E2F9002C3AD077
:100B90002B681B7B9C4236D82C4BE3181B01AA68A0
:100BA00094466344009A1A60019A5A60089A9A60BF
:100BB000099ADA602E68002C2BD030D0337B9C420F
:100BC0002DD863001B19033B32689446634400220E
:100BD0009A705A701A70717B22003000FFF766FF1E
:100BE0007073844200D095E7287D009A019B00F045
:100BF00071FC061E01D0002F17D00C9B002B00D1DA
:100C000088E71E7086E7124B124A3C210E4801F01D
:100C10009FF9114B114AA521084801F099F9054B9C
:100C2000054A6821054801F093F92868210000F081
:100C300089FEE2E7D871001038740010F4710010DA
:100C400074720010447400106C710010FFFFFF0FED
:100C5000B4710010CC73001068710010287400107B
:100C6000F0B5DE4657464E464546E0B58BB0099096
:100C7000002308938200B54BD658370052E0B44B9E
:100C8000B44A3F21B44801F063F9B44BB44A3C2163
:100C9000B44801F05DF9002901D1002869D1002193
:100CA000404600F045FEA04219D12A686B680692C2
:100CB0000793AB689846EB689A464346002B14D0DE
:100CC000002C18D03B681B7B9C4214D8631EFA682A
:100CD000D35C08931B0218433861002015E0A24B37
:100CE000A24A8E219F4801F033F9A14B9F4A9221DD
:100CF0009C4801F02DF9994B9E4A4121994801F0F9
:100D000027F900239A46984600207B68BFF35F8F3F
:100D100000221A6086F310884346002B32D1002847
:100D200000D10CE100F04AFB02000B1EA7DB002003
:100D30000021069007917868EFF3108672B601687B
:100D40000029FCD0BFF35F8F396888464C7B002CAC
:100D5000D7D09AD0097B8C4297D8874965182D0146
:100D6000B9688C46654428686968801A99410029E9
:100D700091DD2A686B68099800F0ACFB00239A4665
:100D80009846C2E7089B1B02234399465146180028
:100D9000C04705000E007A68EFF3108B72B6136837
:100DA00059424B41D9B2002BF9D1BFF35F8F002ECE
:100DB0001EDB002E46DD3B69002B47D04B456DD135
:100DC00000F0FCFA02000B1E6EDB52197341002B7F
:100DD00070DB002B72DB002104910131039102943E
:100DE00051460191414600913800FFF77FFE4CE0EB
:100DF0003B69002BDDD04B4514D1069A079B521B53
:100E0000B341002B14DB002B16DB002104910131D0
:100E10000391029451460191414600913800FFF739
:100E200065FE32E0554B514AA1214E4801F090F841
:100E300001225242524BE6E7454B464A3F21464883
:100E400001F086F8002E01D1002DB4D13B68002CB2
:100E500050D05A7B944237D1012100294AD1DA7B04
:100E6000002A4DD19A7B002A03D1DA7B002A5AD17D
:100E70009C73DC73002C5CD03B681B7B9C4258D875
:100E8000FA68013C135D0133135500233B617A6816
:100E9000BFF35F8F13608BF3108843E7374B334A00
:100EA000A421304801F054F8294B2A4A3F212A480E
:100EB00001F04EF801225242314B8AE7244B254A79
:100EC0003F21254801F044F8002C0DD01A7B9442B4
:100ED0000AD862001219033A18688446624492786C
:100EE000002ABAD00121B8E7264B274A68212748B3
:100EF00001F02EF8264B274AF621244801F028F865
:100F0000002A0AD0197B8A4207D851008A18033A6E
:100F100019688C4662445470A4E71A4B1A4A682137
:100F20001A4801F015F81C4B1A4AFB21174801F02A
:100F30000FF80A4B0F4A41210A4801F009F80BB09B
:100F4000F0BCBB46B246A946A046F0BDB4C90020DD
:100F50009470001098730010B0700010B4710010FD
:100F6000CC7300106C7100109C720010B0730010F4
:100F7000B4720010F0730010FFFFFF0FC07200107A
:100F8000FFFFFF7FD871001038740010F47100105B
:100F9000FC720010047400102073001010B50C4B8C
:100FA0005B68002B04D00A210A48FFF793FC10BDB0
:100FB000074C2300084A1021206800F0C9FB0320D9
:100FC00000F0F0F903212000FFF7A8FCEBE7C04692
:100FD00084020020C8CB00208D09001010B5064BFC
:100FE0005B68002B01D0044810BD044B044A5E210D
:100FF000044800F0ADFFC0468402002034730010A6
:10100000D87300106C710010F0B5DE4657464E469E
:101010004546E0B58BB0804616001F00149B9A46EB
:10102000159B994616AB1B789B461F2302AA944634
:10103000634400221A702BE0002809D0424612684F
:10104000127B904204D8421E4146C9688A5C41E046
:10105000404B414A4121414800F07AFF07984CE05B
:10106000361BAF41002F07DB002F11DA3C4B3D4A06
:101070003F213D4800F06CFF012676423B4FF3E7ED
:10108000374B384A3F21384800F062FF002F4FDBD2
:1010900043465A68EFF3108472B6136859424B41C5
:1010A000D9B20791002BF8D1BFF35F8F1F3302AA8B
:1010B0009446634404930023039302934B460193A5
:1010C0005346009332003B004046FFF70FFD031EDE
:1010D000B2D1020041464968BFF35F8F00250D6021
:1010E00084F31088002B29D01F2302A98C46634467
:1010F0001B78002BB2D112021043002B20D05B468C
:10110000002B1DD04946D04704000D0003000B43BF
:101110001DD00029A4DB00F051F906000F1EAFDB43
:1011200036196F41002FB1DA012676420F4FADE735
:101130000B4B0C4A3F210C4800F00AFF01204042B3
:101140000BB0F0BCBB46B246A946A046F0BD07981E
:10115000F6E7C046B4710010F07300106C71001017
:101160009470001098730010B0700010FFFFFF7FA4
:10117000F8B50400002900D162E04268EFF3108561
:1011800072B6136858424341D8B2002BF9D1BFF36D
:101190005F8FCBB22268567BB3421BD1012000285F
:1011A00048D0206988422BD0090AC9B2002B2ED022
:1011B0002068007B83422AD8581EE668305C88424B
:1011C0002BD000206368BFF35F8F00221A6085F385
:1011D0001088F8BD002B0DD0167BB3420AD85E00F4
:1011E000F618033E1768BC466644B678002ED6D083
:1011F0000120D4E7134B144A6821144800F0A8FEDC
:101200002C21134B134AFF31134800F0A1FE134B5E
:10121000134A4121104800F09BFE1900100000F015
:1012200091FB0028CED199210E4B0A4A49000A4869
:1012300000F08EFE23698B42C4D100232361C1E7F5
:101240000020C6E7D871001038740010F471001047
:1012500058730010807300106C710010B47100108E
:10126000F07300107C73001070B584B005000C00A2
:10127000EFF30583002B1ED1FFF7B0FE002302938E
:101280000193224B00932A002300FFF7BDFE061EA8
:1012900023DD20BFFFF7A2FE3100FFF769FF1C4BE3
:1012A0005B6A9C422DD81A4A926AAA422CD29C426E
:1012B00025D0012026E0164B5B6A994209D8144AD2
:1012C000926A824207D2994201D001201AE000209E
:1012D00018E0002016E0012014E00D4B5B6A9C42F0
:1012E00009D80B4A926AAA4207D29C4201D0012037
:1012F00008E0002006E0002004E0012002E00020D9
:1013000000E0002004B070BD0120FBE75D09001083
:101310000040054070B5EFF305801038EFF3108CF6
:1013200072B61A4B1B68002BFBD0BFF35F8F0122F4
:101330001300834016494B6316490B601649097820
:101340000C00C440224214D0114A546A8200134D4A
:101350005259944206D38200114C125999430E4BB4
:10136000197007E00A4A031D9B0099589950002202
:1013700000E00022BFF35F8F044B002119608CF363
:101380001088002A00D0904770BDC046280100D0C8
:10139000004005403C700540E6CB0020CCCB00204F
:1013A0002CC9002010B50100024A0348FFF73CF8A1
:1013B00010BDC0465C740010E4CB0020044B5B6A97
:1013C000034A906A1900536A9942F9D17047C0469E
:1013D00000400540084B5B6A01E0074B5B6A8B42AB
:1013E000FBD301E0044B5B6A8B4203D1024B9B6A47
:1013F0008342F7D37047C0460040054070B50400F3
:101400000D00FFF7DBFF02000B0020002900801811
:1014100059418B4202D804D1824202D90120404274
:10142000C117002902DBFFF7D5FF70BD024B034A4D
:101430003F21034800F08CFD9470001010750010DF
:10144000B070001070B504000D00EFF3108672B696
:101450001B4B1B68002BFBD0BFF35F8F002D1CD0F4
:101460002000FFF795F8174B83420BD0190020009E
:10147000FFF796F801212000FFF782F80123A3402F
:10148000114A1360A400114BE550BFF35F8F0C4B62
:1014900000221A6086F3108870BDA2000B4B002159
:1014A000D1500122A2400A490B7893430B700549A1
:1014B0002000FFF79FF800212000FFF761F8E4E724
:1014C000280100D015130010386005402CC90020F9
:1014D000E6CB0020F0B5DE4600B584B00400150070
:1014E00001921E000293FFF769FF03958E4202D816
:1014F0004ED185424CD9EFF3108B72B6274B1B6847
:10150000002BFBD0BFF35F8F254A17780125A5403C
:10151000EBB23B431370234B5D63221D9200019994
:10152000D150A2002049029850501B6A2B4212D180
:101530001C4B1B6C2B4208D00020BFF35F8F174B56
:1015400000221A608BF3108823E0184B184AC5213B
:10155000184800F0FDFCFFF731FF8E4214D802D18D
:10156000039B834210D80E4B1B78BB420ED00D4B11
:101570001D625D631F2004400123A3400E4A1360D7
:10158000074B1F701E38D8E70020D6E70120D4E7AC
:10159000012004B080BCBB46F0BDC046280100D08D
:1015A000E6CB002000400540CCCB0020807400102A
:1015B000F4740010A474001080E200E0EFF3108CCB
:1015C00072B60B4B1B68002BFBD0BFF35F8F012360
:1015D0008340084A136208490A789A430A70BFF3A5
:1015E0005F8F034B00221A608CF310887047C0464F
:1015F000280100D000400540E6CB002010B50029AE
:101600001ED0037B99421BD84B005B18033B046838
:10161000A4466344002919D0002A1DD0914221D04C
:10162000002A25D0047BA24222D8046850008018EA
:10163000033820188170197800291FD11A7010BD45
:10164000104B114A6821114800F082FC104B114ADE
:101650006F310E4800F07CFC0F4B0E4A70210B4896
:1016600000F076FC0D4B0B4A7121084800F070FC2D
:10167000044B054A6821054800F06AFC41701A7065
:10168000DDE7C046D871001024760010F471001018
:101690004472001010760010507200105C7200103E
:1016A00070B506000D001400002914D0002A14D0D3
:1016B000806873689847002806D02200290030000F
:1016C000FFF79CFF280007E02A0021003000FFF709
:1016D00095FF200000E0100070BD0800FCE700004E
:1016E00010B50023437301338373037BC37301235A
:1016F000027B9A4214D9002B0CD0027B934209D86A
:101700005A00D218033A01688C4662440133DBB2B6
:101710005370EDE70B4B0C4A68210C4800F018FCA5
:10172000002A09D0924207D8016853009A18033A58
:101730008A180023537010BD024B034A68210348E6
:1017400000F006FCD871001024760010F47100102F
:1017500010B5017342608360FFF7C2FF10BD000047
:1017600070B50400081E00D170BD002934D0237B61
:10177000994231D84B005B18033B2268944663447E
:101780005A78002AF0D02DD0237B9A422AD85300D1
:101790009B18033B21688C4663445D780021597097
:1017A000002825D0237B984222D843001B18033BF6
:1017B00021688C4663440021597001002000FFF726
:1017C0006FFF060029002000FFF7CAFF020031006A
:1017D0002000FFF765FFC7E7084B094A6821094861
:1017E00000F0B6FB054B064A6821064800F0B0FB46
:1017F000024B034A6821034800F0AAFBD87100108D
:1018000024760010F471001070B505000C0016006D
:1018100000292FD034D0037B994231D84B005B187C
:10182000033B0268944663445A78002A2ED19A7882
:10183000002A31D11978FFF793FF0300002E0AD058
:10184000EA7B002A2ED1AA7B002A03D1EA7B002A58
:101850003BD1AC73EC73002B3DD1002C4FD02B7BD4
:101860009C424CD82B6861000C19033C1C190023C6
:10187000637070BD254B264A3821264800F068FB6E
:10188000254B264A6821264800F062FB254B204A5A
:101890003A21204800F05CFB234B1D4A3B211D48A8
:1018A00000F056FB002A0AD0297B8A4207D8510053
:1018B0008A18033A29688C4662445470C3E7164B71
:1018C000164A6821164800F043FB184B104A422183
:1018D000104800F03DFB002B0BD02A7B934208D828
:1018E00043001B18033B2A689446634400229A7005
:1018F000B3E7094B094A6821094800F029FB064B68
:10190000064A6821064800F023FBC04628750010EF
:10191000FC75001030750010D8710010247600108E
:10192000F471001078750010A0750010207300107D
:1019300070B504000A00457B2900FFF765FF60735E
:10194000280070BD70B50400002967D0437B8B422E
:101950000ED0002911D0037B99420ED84B005B18A2
:10196000033B0268D0188378002B0CD1002056E08E
:101970000121FFF7DDFF012051E0294B294A6821B1
:10198000294800F0E5FA002B20D0227B93421DD895
:101990005A00D318033B2268D2182568EB5C8B42AF
:1019A0001AD0002B1BD0227B934218D85A00D31890
:1019B000033B2268D21853788B4216D0002BF0D10B
:1019C0001A4B1B4A6B211B4800F0C2FA144B154AF4
:1019D0006821154800F0BCFA4378137007E0104BFB
:1019E000104A6821104800F0B3FA4378537000237E
:1019F0008370437001222000FFF706FF0200617B25
:101A0000814205D02000FFF74BFE6073012006E005
:101A1000094B074A7121074800F09AFA002070BD6F
:101A2000D871001024760010F4710010A86F001017
:101A3000E475001030750010C475001070B5046BAB
:101A4000E30701D4200070BD02003032C0239B01A7
:101A500013430A4A1A60456A826AAD01AD18AD02A5
:101A6000062000F0BDF9064901F026FC010028001F
:101A700001F022FC0021FFF7C1FCE3E701030000B5
:101A80004E0E000070B504000E001500FFF7D6FFE3
:101A900022002C32E16A4E40354080235B01134323
:101AA0001D60206370BD000070B505000C000620AD
:101AB00000F096F9C000210001F0FEFBC60908D035
:101AC0000E4B9E4216D87F23184001303400460842
:101AD00000E001246C62AE62002200212800FFF7C2
:101AE000D1FF062000F07CF98000A101891901F0E6
:101AF000E3FB70BD0026024CECE7C046FEFF000091
:101B0000FFFF000010B505394901013AD200114329
:101B1000002B09D002220A43012B07D000211143D8
:101B20006E22FFF7AFFF10BD0022F4E70421F6E7B5
:101B3000002909D00A22064B9C4660444342584182
:101B40004000044BC252704780225200F3E7C04667
:101B50000080FCBFDCCB002070B505000C00062027
:101B600000F03EF9061E27D0164B9D4226D080225B
:101B7000D203154B1A60154B1A60154B9B68110068
:101B80009943FAD100212800FFF7D2FF2100280055
:101B9000FFF78AFF06000023012208212800FFF733
:101BA000B1FF2A002C3280239B01134310221A60BC
:101BB000084B2B630323AB64300070BD80221204FA
:101BC000D7E7C0460080034000E0004000F000403E
:101BD00000C0004001030000F8B5DE4657464E46FF
:101BE0004546E0B505000F0092460A9A934250D34D
:101BF0001A0E91461E020A9A00233000494601F04F
:101C000099FB80466C006419A400304B9C466444E8
:101C10006368834200D260602B1FDBB29B46012BBE
:101C20003DD9C0239B012343802212011A60AB00DF
:101C3000274A9958002907D0506901F03DFB431C01
:101C40005800C0180338FDD253465A0123685A4041
:101C5000E0231A4080235B0123431A605A46012A7D
:101C600028D980239B012343802212011A60434616
:101C70006360424600233000494601F05BFBAD0043
:101C8000134B58510120F0BCBB46B246A946A046B2
:101C9000F8BD104B104A3321104800F059F9012FBC
:101CA000BFD1C0239B01234303221A60A368DB0733
:101CB000FCD5C9E72168794003220A401A60A2686E
:101CC0000123BB401342FAD0CBE7C046008000405E
:101CD00044C9002030760010987600104476001039
:101CE00030B583B00C2000F011F9FEF77DFB002821
:101CF0000DD0002304E099002D4A2E48885001336E
:101D0000092BF8D92A4B2C4A5A6203B030BD2B4B11
:101D100000229A6700F002F9294B01221A60274B32
:101D20005B6C012BFBD1274B03221A60234B9B6B6F
:101D3000012BFBD1013300930433234A01212348B3
:101D400000F054F805230093214A0121214800F0B6
:101D50004DF8214B0093002202210420FFF73CFFA5
:101D60001E4D00952B00002201210520FFF734FFB6
:101D7000104C00942300002200210720FFF72CFFC5
:101D800000942300002200210820FFF725FF0A4BC2
:101D900000932300002200210920FFF71DFF00957A
:101DA0002B00002200210620FFF716FFADE7C046FA
:101DB00044C90020006CDC021BB70000008000401A
:101DC0003CB0004030B00040002F68590080024015
:101DD000008C864700C00240001BB70040597307C3
:101DE0008000014BC058704744C90020F0B5C6467A
:101DF00000B504000E0017001D00374801F05CFA22
:101E00008046364BFA18364B9A4239D801003800D2
:101E100001F052FA0200103A98235B009A4235D83A
:101E20006B1E062B38D8069B013B062B34D83F0986
:101E3000474537D32D04069B1A0315432368002B0F
:101E400036DB284B9C4244D080225201264B1A603C
:101E5000264B1A60264B9B6811009943FAD12660E5
:101E6000A060231DC02292011A432123136023681E
:101E7000002BFCDAE5600823136080BCB846F0BD97
:101E80001C4B1D4A11211D4800F062F81C4B1A4AD8
:101E900019211A4800F05CF81A4B174A1C21174800
:101EA00000F056F8184B144A2321144800F050F85B
:101EB00022683F231340B342C3D1A3681B051B0D07
:101EC0008342BED1E368EE22D2021340AB42B8D1C6
:101ED000D3E780229201B9E7001BB70080E84BD31B
:101EE00080F8A93200C0024000E0004000F000404D
:101EF00000C00040A8760010D877001008770010C6
:101F00005477001070770010BC77001080239B007E
:101F10000343014AD362704700800540064BAA2262
:101F200012011A602F22DA60044B054A1A60024B34
:101F30005B68002BFBDA7047004002400060024003
:101F400000B0FA0000BEFDE710B5FFF7FBFF000090
:101F500010B582B00C001900002A0CD0084B002AE2
:101F60000BD00192009323000200064801F0EAFE24
:101F70000120FFF7E7FF044BF1E7034AF1E7C04612
:101F8000E4770010F4770010F077001070B52B4B59
:101F90002B4A1A602B4B2C4A1A602C4B9A682A4BFE
:101FA0009343FAD12A4C01E008CC9847294B9C4234
:101FB000FAD3FFF795FE234B274A1A60234B9B6801
:101FC000DB43DB01FAD1254B40229A675A671A6737
:101FD000DA66234C09E0234B234A87212348FFF785
:101FE000B7FF2000FEF77EFC0834214B9C4209D24B
:101FF0002368002BF5D0012BEDD12000FEF77FFCEC
:102000000834F2E71B4CA1681B4DC022280001F0E8
:1020100041FDA560EFF30583002B00D000BEFEF765
:102020001DFAFEF749FCFEF7B9FF144C01E008CC9D
:102030009847134B9C42FAD370BDC04600E0004065
:10204000BFCDFBFE00F00040FE7F3C0000C0004022
:10205000F802002008030020FFFFFF0100F001400C
:10206000F002002024780010B878001044780010A6
:10207000F802002000ED00E000000020080300202E
:10208000100300200FB400B583B0084801F02AFE09
:10209000049B002B07D005A90191180001F032FE26
:1020A000034801F01FFE0120FFF74CFF9478001059
:1020B000A478001010B50148FFF7E4FFA8780010DD
:1020C000704710B5002802D00B684968984710BDCA
:1020D0000100002007E083001B185B00501C086013
:1020E0001078C01830380A681378303BDBB2092BFF
:1020F000F1D97047F0B5DE4657464E464546E0B545
:1021000083B093461F000C9B9A460D9C0E9B9946EC
:102110000F9B9B0703D0B8460F00060022E00192F8
:10212000A34688464E46B9460700B44207D2551C1E
:102130004B4641462020B84701342A00F5E73D00D0
:102140004F465C46019B9B46B1464646B846370023
:102150002E0007E0013C551C5346185D43463900EC
:10216000B0472A00002CF5D135003E0047460F9BB2
:102170009B0707D4100003B0F0BCBB46B246A9468B
:10218000A046F0BDB0464E46B9462F005D46531BF3
:10219000B342EFD2541C4B4641462020B8472200A0
:1021A000F5E7F0B5CE46474680B585B094469846EB
:1021B0000C9D0D9C0EAB1B789946109A119B129E9C
:1021C000B7071CD4002B0CD0F7070AD54F46002FB9
:1021D00002D10C37374204D0013B02E030272F55A3
:1021E0000134944201D21F2CF8D9F70707D59C423D
:1021F00005D21F2C03D830272F550134F5E7F706F9
:1022000015D5770505D4002C03D0944224D09C42E8
:1022100022D00F9A102A2BD00F9A102A30D00F9A62
:10222000022A35D01F2C02D830222A5501341F2C07
:1022300005D84A46002A31D02D222A55013403966A
:1022400002930194009543466246FFF753FF05B0A1
:10225000C0BCB946B046F0BD621E012C06D00F9F2F
:10226000102F01D01400D4E7023CD2E71400D0E7CD
:10227000B206D1D41F2CCFD878222A550134D1E709
:10228000B206CCD51F2CCAD858222A550134C9E72A
:102290001F2CC7D860322A550134C3E7720703D513
:1022A0002B222A550134CAE73207C8D520222A55E5
:1022B0000134C4E7F0B5DE4657464E464546E0B524
:1022C00093B081468A46089209931CAB10CB1B78C9
:1022D0009B461E9D219B9846002C03D1102342460D
:1022E0009A4390468023DB0046461E4042461A42EF
:1022F00012D0002C22D000260EE03033D9B2771C49
:102300000AAB99552900200000F0D6FFAC4216D345
:102310001F2F14D83E0004002900200000F0CCFF3D
:10232000CBB2092BE9D94246920605D54121C918FD
:10233000C9B20A39C9B2E2E76121F8E7270043468A
:102340000693209B05931F9B049303955B46029382
:1023500001970AAB0093099B089A51464846FFF73C
:1023600020FF13B0F0BCBB46B246A946A046F0BD64
:10237000F0B5DE4657464E464546E0B595B0089066
:1023800009910A920B931E9E1F9C20AB1B789B46C3
:10239000229B9946239D269B9A463300234303D1D3
:1023A000103352469A4392468023DB0057461F4023
:1023B00052461A4219D0330023432DD0002714E08F
:1023C0003033DAB27B1C98460CABDA554A462B0008
:1023D0003000210000F0AEFFA5421FD819D04346BF
:1023E0001F2B1BD8474606000C004A462B00300026
:1023F000210000F09FFFD3B2092BE1D9524692068B
:1024000005D54122D218D2B20A3AD2B2DAE7612215
:10241000F8E7B145E3D901E0002398465346069317
:10242000259B0593249B04934B4603935B460293A1
:10243000434601930CAB00930B9B0A9A09990898A9
:10244000FFF7AFFE15B0F0BCBB46B246A946A046AA
:10245000F0BD0000F0B5DE4657464E464546E0B5B5
:1024600091B083468A460C9298461A9C08941B9D0C
:10247000099522002B002000290001F0D6F9002840
:1024800000D0E5E001225242D74B2000290001F0A4
:10249000C7F9002800D0DBE001225242D34B2000D4
:1024A000290001F0A7F9002800D0D1E00022002384
:1024B000089E3000099D290001F09CF9002800D0F9
:1024C000DDE008980999069007918023DB001E9AA9
:1024D0001A400D921E9A1A4201D106231C930698A7
:1024E000079904000D000A000600024300D1D1E064
:1024F000080D4005400DBE4CA44660440A03120B73
:10250000BC4B13431F0001F0A3F9BB4ABB4B01F0C6
:1025100032F9BB4ABB4B01F00FF904000D00002259
:10252000B94B3000390001F002F9B84AB84B01F05C
:1025300022F902000B002000290001F0FDF801F053
:102540009FF9814601F084F904000D00B14AB24BB5
:1025500001F011F90022B14B01F0EEF801F090F911
:102560000600AF4AAF4B2000290001F004F9040037
:102570000D00300001F06CF9AB4AAC4B01F0FBF8F8
:1025800002000B002000290001F0D1F804000D002A
:1025900002000B0001F0EFF80A900B91A44BF31826
:1025A00000261F0522002B002000290001F0C4F89E
:1025B0000E900F9122002B0000208021C90501F010
:1025C000B6F804000D0000229A4B0A980B9901F00E
:1025D000B8F80022984B01F0AFF802000B000A98FF
:1025E0000B9901F0AEF80022944B01F0A5F802001F
:1025F0000B000A980B9901F0A4F802000B002000D0
:10260000290001F099F802000B000E980F9901F0D3
:1026100098F80022774B01F08FF832003B0001F070
:10262000AAF806000F0004000D00069A079B01F0AF
:10263000F7F8002830D001235B429C46E144002299
:102640007D4B3000390001F07CF804000D0023E0E0
:102650001E9B04931D9B03931C9B0293089A099B4A
:102660000092019343460C9A5146584600F0FCF8FC
:1026700011B0F0BCBB46B246A946A046F0BD00234F
:10268000002406930794069680231B069C46654407
:1026900007951AE7002399464B466333C62B1ED88D
:1026A00004261E9B1B0526D52B0023430FD0644A0E
:1026B000644B0698079901F0ABF8002879D0002206
:1026C000614B0698079901F095F8002871D01C9B82
:1026D0004B4506DD4A46981A431E1C9303E0052627
:1026E000DFE700231C938023DB001E9A1A431E920F
:1026F0000026002399461D9B9E4264D29F1B022305
:102700001E9A1A400A921E9A134202D0002E00D03E
:1027100000274B46002B07D022002B000698079974
:1027200001F00FF8069007910022002308980999FC
:1027300001F060F8002848D1444B1E9A13400493DE
:1027400003971C9B0293069B079C009301944346AE
:102750000C9A5146584600F087F8002E00D187E7C2
:102760001E9B9B063DD54525441C43460200514611
:102770002800D8474B46DA179B185340052205928C
:10278000013E0496002203920A3202924A46D00F7A
:10279000019000934346220051465846FFF78AFDB8
:1027A0000A9B002B00D163E702005F460C9E1D9D33
:1027B00054E01C9B002B9ED00D9B002B9BD01C9BA0
:1027C000013B1C9397E7002799E7069C079D220091
:1027D000290080200006844661440B00069207937E
:1027E000AAE76525C0E7C046FFFFEF7FFFFFEFFFC9
:1027F00001FCFFFF0000F03FFB799F501344D33FE3
:10280000B3C8608B288AC63F0000F83F61436F63FE
:10281000A787D23F71A379094F930A400000E03F98
:102820001655B5BBB16B0240EF39FAFE422EE63FBA
:10283000FF03000000002C4000002440000018406E
:102840002D431CEBE2361A3F80842E41FFF7FFFF39
:10285000541C434651462020B8472200931BAB42EC
:10286000F6D3100004E7C046F0B5DE4657464E46A4
:102870004546E0B595B00690079193469946209F4E
:102880001E9A1F9B1000190000F0CFFF002831D1C5
:1028900001225242BF4B1E981F9900F0ABFF002847
:1028A00037D101225242BC4B1E981F9900F0B8FF4D
:1028B00000283DD10022B94B1E981F9900F0B0FFAF
:1028C000002850D10022B64B1E981F9900F092FFAD
:1028D000002848D1002200231E981F9900F08AFF8B
:1028E000002850D100239846229B5B0500D4B6E017
:1028F000002458E0229B0393219B0293032301931E
:10290000A84B00934B465A4607990698FFF7F2FBEF
:102910000EE1229B0393219B029304230193A24B7C
:1029200000934B465A4607990698FFF7E3FBFFE0F2
:102930000423229A1A4022990B4210D09B4B002A62
:102940000FD00422229903912199029101920093C0
:102950004B465A4607990698FFF7CCFBE8E0944BA4
:10296000EDE70322EEE7229B0493219B039302975A
:102970001E9B1F9C009301944B465A46079906984C
:10298000FFF768FDD4E01E9A1F9B0020002100F095
:10299000CEFE1E901F9101239846A5E70CAB302276
:1029A0001A55013F01341F2C01D8092FF6D81E9863
:1029B0001F9900F065FF050000F04AFF02000B00C0
:1029C0001E981F9900F0B3FEFA007A4B9B181A6804
:1029D0005B680A920B9300F0CEFE0890099100F01C
:1029E00073FF060000F030FF02000B000898099901
:1029F00000F09DFE0890099100226F4B00F010FF3F
:102A000000282ED00136300000F01EFF02000B001F
:102A10000A980B9900F0F4FE002801D00135002639
:102A2000002F2CD1280000F013FF02000B001E988D
:102A30001F9900F07CFE06000F0000225E4B00F0A4
:102A4000D9FE002846D100225B4B3000390000F04F
:102A5000E7FE00283ED1EB073CD501353AE00627DA
:102A600046E70022544B0898099900F0C3FE00285D
:102A7000D6D1002E01D0F307D2D50136D0E7AA4631
:102A80001F2C11D8013F0A21300000F015FC651CF5
:102A900030310CAB19550A21300000F00DFC092E25
:102AA0000ED906002C00EBE755461F2C0CD87B1ED8
:102AB000002F09D00CAA302111551F000134F4E772
:102AC0002B0055461C00F0E71F2C03D80CAB2E2220
:102AD0001A5501341F2C10D80A21280000F0C4FB1D
:102AE000661C30310CAB19550A21280000F0BCFBE4
:102AF000051E01D03400EDE734000323229A134071
:102B0000012B1CD01F2C06D84346002B32D00CAB17
:102B10002D221A550134229B0393219B0293019489
:102B20000CAB00934B465A4607990698FFF7E2FA1A
:102B300015B0F0BCBB46B246A946A046F0BD219BED
:102B4000002B13D04346002B02D10C3313420FD07D
:102B5000219B013B2193190003E00CAB30221A5555
:102B600001348C42CED21F2CF7D9CBE72199F8E75C
:102B70002199F6E7229B5B0704D50CAB2B221A5553
:102B80000134C8E7229B1B07C5D50CAB20221A5580
:102B90000134C0E7FFFFEFFFFFFFEF7F65CDCD41C1
:102BA00065CDCDC1D4780010D8780010CC78001055
:102BB000C8780010C07A00100000E03FF0B5DE4693
:102BC00057464E464546E0B593B082468B46904602
:102BD0001193002900D1EBE200275546119B18788C
:102BE000002800D1E7E2252809D07C1C43463A00A2
:102BF0005946A847119B013311932700EEE7013393
:102C000011930024119A11780B00203BD8B21028A0
:102C100003D88300D048C3589F460B00303BDBB23B
:102C2000092B2CD92A292FD000230A93119B1A781B
:102C30002E2A39D000239A46119A1378683BD9B2CC
:102C4000122976D88B00C549CB589F4601231C43D7
:102C500001321192D6E702231C4301321192D1E7CF
:102C600004231C4301321192CCE708231C43013298
:102C70001192C7E710231C4301321192C2E711A839
:102C8000FFF726FA0A90D1E71C9B1A1D1C921868C0
:102C9000002804DB0A90119B01331193C6E702233D
:102CA0001C4343420A93F6E78022D20014435A1C85
:102CB00011925A781300303BDBB2092B04D92A2A2F
:102CC00007D000239A46B7E711A8FFF701FA82461A
:102CD000B2E71C9B1A1D1C921868002804DB824670
:102CE000119B01331193A7E70020F8E780235B00D5
:102CF0002343511C119152786C2A01D01C0018E01A
:102D0000C0239B001C430131119112E08023234317
:102D1000511C11915278682A01D01C0009E0C0238F
:102D20001C430131119104E080235B001C430132FC
:102D30001192119B18780300253BDAB2532A00D96F
:102D40002CE29300864AD3589F4680239B001C4365
:102D500001321192EDE780235B001C430132119296
:102D6000E7E7782809D0582838D06F2838D062286B
:102D700038D010239C430A2600E01026582833D070
:102D8000692803D0642801D00C229443630501D53F
:102D90000122944369282AD0642828D0A30500D5AD
:102DA0009FE0E30500D5B8E0630600D4CAE01C9AB2
:102DB000111D1C911168FF220A4005940A9B04937F
:102DC00053460393029600230193009243463A0030
:102DD00059462800FFF76EFA070027E01026CDE7D6
:102DE0000826CBE70226C9E720221443C8E7A3053B
:102DF00020D4E30550D4630666D51C9A111D1C919E
:102E00001168FF220A40D317D118594005940A9B34
:102E10000493534603930296D20F019200914346C6
:102E20003A0059462800FFF745FA0700119B013385
:102E30001193D3E61C9BDA1D07218A431100083148
:102E40001C91116853689C46DB170C930D930C9AE8
:102E50000D9B100048400E90624653400F930E9811
:102E60000F990C9A0D9B801A99410E900F9108941E
:102E70000A9B0793534606930496002305936346E3
:102E8000DA0F02920090019143463A005946280019
:102E9000FFF76EFA0700C9E71C9A111D1C91126812
:102EA000D317D118594005940A9B049353460393B2
:102EB0000296D20F0192009143463A0059462800EB
:102EC000FFF7F8F90700B1E7230605D51C9A111D95
:102ED0001C910023D25E96E71C9A111D1C9112686A
:102EE00091E71C9BDA1D07218A43110008311C91D0
:102EF00008940A9B07935346069304960023059370
:102F00000293136854680093019443463A0059466B
:102F10002800FFF72DFA070088E71C9A111D1C9165
:102F200005940A9B0493534603930296002301934E
:102F30001368009343463A0059462800FFF7BAF950
:102F4000070073E723060DD51C9A111D1C9112680A
:102F50001204120C31E7C046E0780010247900100A
:102F6000707900101C9A111D1C91126825E74628E3
:102F70001AD01C9B0733072293431A0008321C9275
:102F800004940A9A0392524602925C681B6800936A
:102F9000019443463A0059462800FFF765FC0700B4
:102FA000119B0133119319E620231C43E1E76728A5
:102FB00001D0472802D180231B011C43452801D0A2
:102FC000472801D120231C431C9B0733072293432E
:102FD0001A0008321C9204940A9A039252460292F2
:102FE0005C681B680093019443463A0059462800E8
:102FF000FFF730FA0700119B01331193EEE502232E
:103000001A002240924623421FD001241C9B1A1D05
:103010001C927A1C9146187843463A005946A847B4
:103020005346002B16D1119B013311934F46D5E522
:10303000561C434659462020B847230032005C1CEA
:103040009D42F5D83D001700E0E701233A002F002C
:103050000A9DF4E74A46A9460A9D06E0571C4346E6
:1030600059462020C84734003A00661CA542F5D8CE
:103070004D469146D7E71C9B1A1D1C921B6899462A
:103080005346002B00D1013B4E4601E001361300B0
:103090003278002A02D05A1E002BF7D14B46F21A82
:1030A00010928023DB0026001E401C4203D05245B4
:1030B00001D95346109302231A0022400B92234257
:1030C00005D03A0037004C46A946554620E03A0064
:1030D000109B5F46B3462E0006E0551C4346390060
:1030E0002020B04723002A005C1C0A999942F4D89A
:1030F00035005E46BB46109437004C46A9465546FF
:1031000006E01D000134561C43465946C8473200AC
:103110002078002804D0002FF4D06B1E002DF0D1B1
:1031200017004D460B9B002B03D1119B01331193CC
:1031300054E50A9F109B06E0561C43465946202042
:10314000A847230032005C1C9F42F5D81700ECE72B
:1031500021231C431C9B1A1D1C921B680093059481
:1031600008230493534603931023029300230193EF
:1031700043463A0059462800FFF79CF80700119B88
:10318000013311932AE57C1C43463A005946252019
:10319000A847119B0133119327001FE57C1C434670
:1031A0003A005946A847119B01331193270015E5B2
:1031B0000A4B9A4610E5AA46474502D343465A1E93
:1031C00000E03A00434659460020D047380013B08B
:1031D000F0BCBB46B246A946A046F0BDC1200010D7
:1031E00000B585B0029003910121009313004A427B
:1031F00002A90248FFF7E2FC05B000BDC3200010A1
:1032000001480421014B1847B00200203132001060
:1032100010B5010018231B8814221088984710BD90
:1032200010B5010018231B8816221088984710BD7E
:10323000F0B5C64600B507000E00002501239846EC
:1032400000E00135B5420AD2AC003C192068FFF716
:10325000DFFF20600028F4D100239846F1E74046C4
:1032600080BCB846F0BD0000124A936F9B0815D28F
:103270009066D166002905D0FFE7FFE7FFE7516FB1
:10328000106F704704B580210906C217514000280D
:1032900000D0C84303F06CFD002104BDF0B5146EEE
:1032A000556E576F166FFFF7E3FF14665566576745
:1032B0001667F0BD000000D0114A936F9B0813D22F
:1032C00010665166002905D0FFE7FFE7FFE7516F61
:1032D000106F704704B5002801D00020C04303F0F0
:1032E00047FD002104BDC046F0B5146E556E576F02
:1032F000166FFFF7E5FF1466556657671667F0BD52
:10330000000000D094464A4A926F9208624601D269
:1033100028E0C046F0B5464E346E756E776F366F56
:1033200000F020F89446424A1466556657671667BF
:103330006246F0BD94463E4A926F9208624601D2C0
:1033400054E0C046F0B53A4E346E756E776F366F06
:1033500000F04CF89446364A14665566576716676F
:103360006246F0BD002B24DB11D000293EDA00B507
:10337000C943404200D1013100F038F8C94340420E
:1033800000D10131DB43524200D1013300BD002A9C
:10339000EBD1002801D1002905D00020C90FC907B1
:1033A00001D1C043410800B503F0DAFC002200233C
:1033B00000BD00B500290ADBDB43524200D10133D6
:1033C00000F014F8C943404200D1013100BDC943A7
:1033D000404200D10131DB43524200D1013300F0C1
:1033E00005F8DB43524200D1013300BD002923D14F
:1033F000002B18D1002A0CD0BC460D4F38667A66D7
:1034000000210023FFE7FFE7FFE77A6F386F674689
:103410007047002801D00748010000B503F0A0FC68
:103420000022002300BD02000B0000200021704795
:10343000000000D0FFFFFFFF002B00D0BFE0130C07
:1034400028D1002AE7D080B4114F39667A66FFE7A9
:10345000FFE730B4040C7B6F396F1B0423433B66DA
:103460007A66FFE7FFE7FFE7C04684B27B6F3D6FF8
:103470001B0423433B667A66FFE7FFE7C046002351
:103480002C042D0C7A6F386F00196941B0BC70475D
:10349000000000D0F0B594460025140E01D11202B0
:1034A0000835140F01D112010435940F01D1920097
:1034B0000235D40F01D152000135D40B0134254F10
:1034C0007C66254C3C660E0C93B2FFE7FFE7FFE7F6
:1034D0003C6F6643360C7703BE467343DF0B5B04D9
:1034E000C01AB941130C7343DB18C91ACE086643DE
:1034F000360CB64493B273431F0F1B01C01AB94177
:10350000130C73431F0B1B05C01AB941860D8F02A4
:103510003E436643360C092D24DB520A7243801A5F
:103520007703460A6643360C16235B1BDE40DF40FA
:10353000BF1964466643821B70460435063301009A
:10354000D940A840C01900D30131A24206D20023BD
:10355000F0BD0000000000D0FFFFFFFF121B013094
:10356000F3D3F1E709277F1BFE406446A2B2724302
:10357000801A00D20139220C7243130C1204821AF1
:1035800099410B007046043513370100F940A840FB
:10359000801900D30131002B02D1A2420AD2F0BD22
:1035A000013000D30131121BFAD2013BF8D1A24203
:1035B00000D2F0BD013000D30131121BF7E7F0B5A6
:1035C0001C0C00D080E00CB400251C0A04D11B02A6
:1035D000160E3343120208351C0B04D11B01160FC3
:1035E0003343120104359C0B04D19B00960F3343E7
:1035F00092000235DC0B02D192185B4101351C00B0
:10360000971864410134464F7C66464C3C660E0C6C
:10361000FFE7FFE7FFE7C0463C6F6643360C7703E2
:10362000BE4697B27743C01B00D20139C01B00D2FF
:1036300001399FB27743C91BC91B170C77437E041E
:10364000FF0B801BB941CE086643360C0C2D33DBD3
:10365000B644120B1F053A431B0B97B27743C01BAE
:1036600000D201399FB27743C91B170C77433E0440
:103670003F0C801BB941860D8F023E4366432927CC
:103680007F1BFE400C3D7746AF40BF1930BCA2B255
:10369000ABB272437343801A9941220C7243130CEC
:1036A0001204801A994102000B000137001BA94146
:1036B000F9D2781E0021F0BD0C277F1BFE40774613
:1036C0007F0BAF40FF19E0E700245D1C07D0144FCB
:1036D0007D663966FFE7FFE7FFE7FFE73C6F95B2DE
:1036E0009EB265436643401BB141150C1E0C6543F9
:1036F000664336042F0C3E432D04401BB1419942D2
:1037000004D202000B0020000021F0BD01D1904244
:10371000F7D3801A994101349942F2D3F6E70000B9
:10372000000000D0FFFFFFFF48404140484018B470
:10373000134B5B68019308BD18B4114B1B680193D0
:1037400008BD94460F4A926F920805D2624618B49B
:103750000B4BDB68019308BD0A4AF0B5146E556E39
:10376000576F166F6246FFF7F2FF064A14665566FA
:1037700057671667F0BD18B4014B9B68019308BDED
:10378000C4C90020000000D0FFB550404240504066
:1037900059404B40594000E0FFB5154F4C00640DB7
:1037A00003D0BC4204D10C0314D80020090D090534
:1037B0005C00640D03D0BC4204D11C030AD8002273
:1037C0001B0D1B0501264B4009D44B4003D58B42F2
:1037D00000D18242FFBD9942FCD19042FFBD0B4314
:1037E000DB1803431343F5D0C9434918FFBD00005C
:1037F000FF07000000B5FFF7CFFF804100BDC046C6
:1038000000B5FFF7C9FF01D9002000BD012000BDB0
:1038100000B5FFF7B9FF01D9002000BD012000BDB0
:1038200000B5FFF7B1FF804100BD012040054A000F
:10383000121804D85A00121801D80020704701202D
:1038400070470020704700000021002805D1704714
:10385000C1174840401AFAD0C90713B5064B1B6878
:1038600098470CBC441CA2401005120B0349091BCD
:1038700009051943114310BDC4CA00201F040000EC
:1038800010B54C00620D8023D218DB00D21A5B0504
:103890007E2A10DD9E3A13DACC1709034908194332
:1038A0005242D140640001341532202A05DAD0405A
:1038B0000843604310BD002010BD0846604310BDA2
:1038C000C80FC018013810BD18B4024B5B6A0193D1
:1038D00008BD0000C4C9002010B50148FEF7D2FBA6
:1038E000107B001070B513231C78012C14D0012C10
:1038F00014DC022C02DC1F4A1F4B9A641F48FFF79E
:1039000087FC1F4B186070BD99001E481A4A8850EA
:1039100001331F2BF8D9EAE70023FAE71A48FFF72B
:103920007FFC05001948FFF77BFC023803789B00F9
:103930007F2B19DD802229000F4800F0ABF8022C04
:10394000D7D1134B1A88B5231B029A4209D1114BC8
:103950001A88114B9A4204D1104B1A88104B9A4284
:10396000C7D00020FEF78EFB0E4B0F4A32210F48C6
:10397000FEF7EEFAB1390010C4C900204C33000044
:10398000C4CA0020D9380010534400005346000038
:1039900054380000D8380000494600009C38000028
:1039A00059460000287B0010D47B00107C7B00105F
:1039B00007B56046002800D100BE01880A0A02301F
:1039C000DF2AFAD1C9B2820804D3028840880004F1
:1039D000104300E00068024A5050039007BD000009
:1039E000C4C9002010B50148FEF74CFBF077001069
:1039F00070B513231E781848FFF712FC0500012E3E
:103A000011D0012E09DDAB1E1B789B007F2B1DDD25
:103A100080222900114800F03DF81148FFF7F8FB1B
:103A2000104B186070BD542201000C4800F032F8B1
:103A3000002300E001331F2BE3D89A00074C1259F2
:103A4000002AF7D19A0008481051F3E7074B084ABB
:103A500042210848FEF77CFA53460000C8CA0020FD
:103A60004C330000C4CA0020E5390010E87B001088
:103A7000707C00101C7C001001480421014B184789
:103A8000C002002031320010014B1B6818470000B3
:103A9000C0020020014B5B6818470000C0020020F4
:103AA00010B50300080011001B68984710BD000006
:103AB000F8B507000D001600437D002B02D000244E
:103AC00000200CE003681100280098472DE03B7DA2
:103AD00010E0022115483B689847601C0134B4424D
:103AE00014DA002CF3DD2B19013B1B780D3B5A42F5
:103AF0005341DBB22A5D0A2AF0D1002BEED1A0425D
:103B0000E7DA211A28183B689847E2E7B04203DA5F
:103B1000311A28183B689847002E06DDAD19013D83
:103B20002B780D3B5A4253413B75F8BD247D001064
:103B300070B505000368002B16D00C4B1C6805E01F
:103B4000290004C92000FFF7B3FF2469002C09D025
:103B50002368002BF9D0064B1B68002BF0D0A34242
:103B6000F3D1EDE700232B6070BDC046ACC9002047
:103B7000B0C9002070B505000C000B68802B05D083
:103B800021684B1C23606418257170BD0800FFF785
:103B9000CFFFF5E710B5FDF711FC02000B1E0BDBA4
:103BA0000D48002112184B41002B0BDB002B0DDBC5
:103BB0000A4803F0E5F810BD094B0A4A3F210A48BC
:103BC000FEF7C6F901225242084BEFE7044B054AC3
:103BD0003F210548FEF7BCF940420F00F0020020EB
:103BE000947000100C7D0010B0700010FFFFFF7F7C
:103BF00010B5024803F0ACF810BDC046F00200203A
:103C0000F0B5CE46474680B583B006000D0090461D
:103C10001C00FFF7BFFF81466B1C05D0002C08D0AD
:103C2000194F1A4B1C6807E0300003F05FF80500DD
:103C3000F4E7174FF5E72469002C17D02368002B11
:103C4000F9D0144B1B68002B01D0A342F3D12A00FA
:103C500031002000B8474346002BECD06B46D91DFD
:103C60000A230B7001222000B847E4E74B46002BE3
:103C700007D16B1E9D41E8B203B0C0BCB946B04647
:103C8000F0BDFFF7B5FFF4E7A13A0010ACC9002082
:103C9000B13A0010B0C90020094A01E010331A00FF
:103CA0001368002B08D08342F8D1002907D103699B
:103CB00013600023036102E0002900D01060704708
:103CC000ACC9002010B5064B1C6801E09847246978
:103CD000002C03D06368002BF8D1F8E710BDC04674
:103CE000ACC9002070B5050003F000F80400002303
:103CF000012201002800FFF783FFFFF7E3FF200008
:103D000070BD000070B5A2B004000E00FFF742FFC6
:103D10000500002301933300220001A90848FFF7A2
:103D20005FFA040001A8FFF703FFFFF7CBFF002DA8
:103D300002D1200022B070BDFFF75AFFF9E7C0465C
:103D4000753B00100FB400B583B004A901C90191FF
:103D5000FFF7D8FF03B008BC04B0184710B500F057
:103D6000F9F8012010BD0000F0B583B005000E0089
:103D700000240FE06B46D91D0D230B700020002896
:103D800016D193699B06FCD40B7813600130013186
:103D9000F5E70134B44219DA0D4B1A682F5D0D4B6B
:103DA000D31859424B415B000B495B5EBB42E1D0EB
:103DB0006B46D91D0F7000200028EAD193699B063D
:103DC000FCD40B78136001300131F5E703B0F0BD8E
:103DD000E0CB00200080FCBFDCCB0020F0B583B03E
:103DE00006000F00002504E06B4607331B782B709C
:103DF0002500BD4215DA174B1A689369102421007B
:103E000019401C420DD16C1C75196B46D81D002938
:103E1000EAD19369DB06FCD41368037001310130E9
:103E2000F5E70D4B1B68002B0CD00A4B1A6850238A
:103E3000936311003431536B38221A4080235B01A5
:103E40000B431A60002D02D0280003B0F0BD033DE3
:103E5000FAE7C046E0CB00203CC9002010B5064B75
:103E60001B68002B06D0054A126800219163044AA2
:103E70001068984710BDC0463CC90020E0CB002028
:103E800040C9002070B504000E001C4B1B681C4A82
:103E900098184242504114300500002C03D0194AB2
:103EA0001268002A06D0002C19D0164B1C60164B45
:103EB0001E6070BD1549FCF773FB01212800FCF75B
:103EC0005FFB0E4B1A685023936311003431536B20
:103ED00038221A4080235B010B431A60E5E7094A48
:103EE0001268002AE1D000229A6300212800FCF722
:103EF00047FB06492800FCF77DFBD6E7E0CB002016
:103F00000080FCBF3CC9002040C900205D3E00107D
:103F100070B50D001C000D4B1860002A0BDA002C48
:103F20000EDA0A4B18682900FDF716FE0121084831
:103F3000FFF7B2FE70BD02211000FCF731FAEEE788
:103F400002212000FCF72CFAEBE7C046E0CB002072
:103F5000D002002010B5064B1B78064B1B78E121E0
:103F60000123002249020448FFF7D2FF10BDC046DA
:103F7000EC7E0010F07E0010004003400E4B4269C2
:103F80009A4201D000207047826A14339A420FD0BF
:103F9000002A01D00020F6E70023022B06DCC2181D
:103FA00064321278012A05D00133F6E70120EAE7EE
:103FB0000020E8E70020E6E72C040020074B9B6A7E
:103FC0001B68002B04D1054B01225242DA62704774
:103FD000024B9A6AD2681268DA62F8E72C04002071
:103FE00010B50400006B01F0EDFC200001F0EAFCCC
:103FF00010BDF0B5DE4657464E46C0B582469B46DC
:10400000089E0A9F1C4B9C46624492003B6B9C4658
:10401000624407239A43914600290ED000240F2CB6
:1040200008D80B5D3D1934352B700B5D002B01D08A
:104030000134F4E743230022FA54032E00D9032667
:10404000FE62381D02F08FF93800183002F08BF94B
:104050003F6104239E1BBE617F625A46514648461B
:1040600001F000FE3860099B002B00D01F60E0BC0F
:10407000BB46B246A946F0BDFFFFFF3FF0B587B093
:104080000490059116001F00900001F037FC051EFA
:104090001FD0682001F032FC041E16D068220021D7
:1040A000FFF7F2FC2563002C0CD00023039302944D
:1040B0000D9B01930C9B00933B00320005990498E3
:1040C000FFF797FF200007B0F0BD280001F07AFC51
:1040D000E9E70400F6E770B5002408E01148A30002
:1040E0001B199A003030801802F032F90134032C89
:1040F000F4D90D4C200002F02BF9260014363000C4
:1041000002F026F9074D2800143002F021F92000B2
:10411000283002F01DF9280002F01AF9AC62E663BB
:1041200070BDC0462C040020AC04002070B5040013
:1041300001F0B6FD274B1A6C01321A645B6C002B40
:104140000CD0244B9B6C002B0DD1224B5B6CDB6A9B
:10415000E26A934207D81F4B5C6404E01D4B5C6429
:104160001B6C012B2FD01B4AD36C0133D364E36A41
:10417000126D934201D9174A136517499A00D21854
:1041800092008A18536BA3609868E060221D426019
:104190009A60E06A0A00303283001D18AD0052199F
:1041A00062614A19126B01324B191A6301F096FDD4
:1041B000084B9B6C002B05D0064B5B6CDA6AE36AFC
:1041C0009A4203D370BDFFF786FFCCE701F05DFD97
:1041D000F8E7C046AC0400202C04002070B512E0C3
:1041E00001F05EFD0A4C636BDD68281D02F0E0F80B
:1041F000236C013B2364636D013B636501F06EFD3D
:104200002800FFF7EDFE024B5B6D002BE8D170BD7F
:10421000AC04002010B5FFF7E1FF034B1B6B012B33
:10422000F9D901F032FDF6E72C040020F0B583B097
:10423000040001911E4B9E6D1E4A976ADD6B586CFF
:10424000043002F0B5F8631C0DD03419184B5B6CC8
:104250005C60A6421ED9164B596C0431280002F04E
:1042600090F803B0F0BD019B002BEED0114A5168CD
:104270000F4B586C8160586C8C68C460586C04306B
:104280006060586C043088605B6C5A61136801335D
:104290001360E6E7064B596C0431380002F071F800
:1042A000044BDB6AA342DCD9024BDC62D9E7C0468F
:1042B000AC0400202C04002010B582B0059C0194B1
:1042C000049C0094FFF7DAFE002804D0FFF72EFFCD
:1042D000012002B010BD01204042FAE710B586B0BF
:1042E00000230F2B07DC0F4AD25C02A9CA54002A14
:1042F00001D00133F5E700240120002C01DD06B0D8
:1043000010BD8022084BA1005C335B180193002391
:104310000093520002A90548FFF7CEFF0028EED017
:104320000134EAE7687D0010AC040020154200105B
:1043300070B5040001F0B4FC002C2CD0251D280021
:1043400002F036F8A36A002B03D02000183002F0E8
:104350002FF81B4BDA6C0132DA645B6CA3421DD080
:104360000022174B9B6C002B01D0002A18D1144A55
:10437000136C013B1364FFF721FE01F0AFFC20003A
:10438000FFF72EFE0E4B9B6C002B03D00C4B5B6C8F
:10439000A34211D070BD0A4B5C6CCFE70122E0E76D
:1043A000074E30002830290001F0E0FF736D013323
:1043B000736501F093FCE5E701F067FCEAE7C046AE
:1043C000AC04002010B5040001F06AFC002C04D0FD
:1043D000E46A01F083FC200010BD014B5C6CF7E740
:1043E000AC04002010B5040001F086FC002C04D0C1
:1043F000E46A01F085FC200010BD014B5C6CF7E71E
:10440000AC04002070B504000D00032900D9032579
:1044100001F046FC002C0ED0E36A9D4226D00DD957
:104420002A4A526CA24224D0284A526CD26AAA422A
:1044300021D3002607E0254B5C6CEDE7234A526C44
:10444000A2421AD00026E562A269002A02DB0421FA
:104450004D1BA5611E4A9900C9188900130030330D
:104460005B1862699A420AD0002E2CD101F036FC0A
:1044700070BD0026E7E70126E5E70126E3E7251DF5
:10448000280001F095FFE36A104A126D934201D9AA
:104490000E4A13650E499A00D21892008A18536B7F
:1044A000A3609A68E26055609D60E06A0A0030325D
:1044B00083001D18AD00521962614A19126B013256
:1044C0004B191A63D0E701F0E0FBCFE7AC04002002
:1044D0002C04002070B504001D4B5B6C83420AD095
:1044E000002808D001F0DCFB2000FFF747FD002882
:1044F00002D101F0F3FB70BD251D280001F058FF2B
:10450000E36A134A126D934201D9114A13651149A6
:104510009A00D21892008A18536BA3609A68E260DE
:1045200055609D60E06A0A00303283001D18AD00BE
:10453000521962614A19126B01324B191A63044B0A
:104540005B6CDA6AE36A9A42D3D201F09EFBD0E751
:10455000AC0400202C040020F8B5040001F0CCFBD2
:1045600006002000FFF70AFD051E30D01F4B1B6E12
:10457000002B33D11D4B5B6CDB6AE26A9A422BD96C
:104580001A4B01225A660125271D380001F010FF41
:10459000E36A164A126D934201D9144A136514490D
:1045A0009A00D21892008A18536BA3609A68E2604E
:1045B00057609F60E06A0A00303283001F18BF0016
:1045C000D2196261CA19126B0132CB191A63300019
:1045D00001F096FB2800F8BD0025D5E72100183131
:1045E0000348143001F0C2FE0025F0E7AC040020BF
:1045F0002C04002010B5FFF771FE012804D001281B
:1046000005D0094B1B6810BD01F02DF8F7E772B615
:10461000064B01225242DA62054B02329A640022B2
:104620009A6501F09DFBECE7E80200202C040020D5
:10463000AC04002010B501F08FF8FFF779FE0024DC
:10464000002C08DDFFF7CAFD72B6074B00229A6402
:1046500001F018FB10BDA200034B9B18D86DFFF7AB
:1046600067FE0134ECE7C046AC040020024A136E3A
:10467000013313667047C046AC040020014B986DAF
:104680007047C046AC040020014B986D7047C0468F
:10469000AC040020014B186C7047C046AC040020ED
:1046A000002801D034307047014B586CFAE7C046FF
:1046B000AC040020F8B5474B1B6E002B00D082E005
:1046C000444B9E6D01369E65002E0AD0424BDB6A3C
:1046D000B34211D900203F4B5B6E002B78D00120F4
:1046E00076E03D4A916AD86B9062D9639A6E013246
:1046F0009A66FFF763FCE9E7002039E0364B0122B8
:104700005242DA62E7E7344BDA62E4E7D968516093
:1047100044E000219962116801391160D96A2D4A7B
:10472000126D914201D92B4A11652B4A8C006418F5
:10473000A1005118496B99608C68DC6065608D60E0
:10474000DC6A15003035A1000F19BC46BF00ED1919
:104750005D616746BD0055192D6B0135BC0012190E
:104760001563DA6A1B4B5B6CDB6A9A4200D9012045
:10477000194B9B6A1B68002BC0D0174B9B6ADB68E8
:10478000DB685A689642BED35A699C68D968A160B2
:104790009C684C601D1D5168A942B7D00021596129
:1047A0001168013911609A6A002AB7D0DC69196A68
:1047B000A160DC694C601900183154688C42A8D1A2
:1047C000196A5160A5E7034AD36E0133D36600200E
:1047D000F8BDC046AC0400202C04002070B501F0E8
:1047E0005FFA444B1A6E013A1A661B6E002B7BD19E
:1047F000404B1B6C002B07D1002476E0196A5160F6
:1048000015E0D968516021E000233B4A5269002A33
:104810004AD0394B1B6ADB689A6AD869196A816089
:10482000D86948601900183150688842E6D00021E4
:1048300099621168013911605A699868D968816074
:10484000986848601C1D5168A142DAD00021596166
:10485000116801391160DA6A2649096D8A4201D965
:1048600024490A65244891008918890041184A6B37
:104870009A609168D9604C609460DC6A01003031C4
:10488000A2001519AD00491959614119096B01318F
:1048900042191163174A526CD26AD96A9142B4D94B
:1048A000144A01215166B0E7002B01D0FFF786FBC7
:1048B000104BDC6E002C0BD10E4B5C6E002C14D018
:1048C0005B6C01F0E2F901240FE0013C002C07D001
:1048D000FFF7F0FE0028F8D0064B01225A66F4E7F5
:1048E000044B0022DA66E7E7002401F0F7F9200024
:1048F00070BDC046AC0400202C04002070B505003B
:104900000C00FFF7B3FE144B986D2B681C19834203
:104910000BD9A34202D82C60002410E0A04202D39D
:104920002C6000240BE02C6004E0A34201D8A042DC
:104930000BD22C60201A0021FFF778FC0124FFF72E
:104940004DFF002804D0200070BD2C600024F6E745
:1049500001F09BF9F7E7C046AC04002010B5041E37
:1049600009D0FFF783FE00212000FFF75FFCFFF76F
:1049700035FF002801D101F088F910BD10B5040001
:10498000FFF774FE01F08CF9044BD86E0019D8665D
:1049900001F0A4F9FFF722FF10BDC046AC040020CF
:1049A00010B51C4B1B6E002B03D01A4B01225A660C
:1049B00010BD184B00225A661B6D00E0013B9A00A7
:1049C000D2189100144A5218126B002AF6D0124ADB
:1049D0009900CC18A0001018446B6468446330320E
:1049E000C91888000830121894420BD09A00D218C7
:1049F0009100094A5218526BD168064A51641365F6
:104A0000536CD5E79900C9188800034A1218D16B76
:104A10005163EBE7AC0400202C04002070B50400C7
:104A200001F03EF9002C10D0251D280001F0C0FC3B
:104A3000A36A002B03D02000183001F0B9FC290034
:104A40001D4801F093FC002303E01C4B5C6CEBE77A
:104A50000133022B09DCE21864321278012AF7D103
:104A6000E218643200211170F2E701F037F9134BBC
:104A70009B6C002B04D1114B5B6CA34207D070BD23
:104A800001F00EF9FFF79AFA01F028F9F3E70B4B62
:104A90009B6C002B09D1084B1B68084A126C9A4288
:104AA00006D1064B00225A64E9E701F0EEF8E6E78A
:104AB000FFF776FFE3E7C0462C040020AC0400209B
:104AC00010B50C00044B596C183101F05AFC01214F
:104AD0002000FFF7ABFB10BDAC04002070B5030055
:104AE00010000D4C656C802212060A43AA615A68B8
:104AF000616CCA61616C95680D62616C18316960A6
:104B0000616C18319160626C93621A6801321A60AC
:104B10000121FFF78BFB70BDAC04002070B50300D2
:104B2000080011005A680C4C656CEA61656C966867
:104B30002E62656C18357560656C18359560626C11
:104B400093621A6801321A60002901D001204042A4
:104B5000FFF76CFB70BDC046AC04002030B5C368E5
:104B6000DB689A6AD869196A8160D8694860180058
:104B700018305168814241D0002199621168013991
:104B80001160294A126E002A3ED15A699868D96884
:104B90008160986848601C1D5168A14231D0002195
:104BA0005961116801391160DA6A1F49096D8A4239
:104BB00001D91D490A651D489100891889004118CD
:104BC0004A6B9A609168D9604C609460DC6A01001D
:104BD0003031A2001519AD00491959614119096B0D
:104BE000013142191163DA6A0F4B5B6CDB6A9A423E
:104BF00018D90D4B01225A66012030BD196A516047
:104C0000BAE7D9685160CAE7084A9169D9618C68E6
:104C10001C62606088601100143199625169013131
:104C20005161E0E70020E8E7AC0400202C040020FC
:104C300030B580231B060B430360C36802694168DB
:104C400084688C60816844684C60516881423CD0C3
:104C5000002101611168013911605A699868D968A9
:104C60008160986848601C1D5168A14230D00021C5
:104C70005961116801391160DA6A1749096D8A4270
:104C800001D915490A65154891008918890041180C
:104C90004A6B9A609168D9604C609460DC6A01004C
:104CA0003031A2001519AD00491959614119096B3C
:104CB000013142191163DA6A074B5B6CDB6A9A4275
:104CC00002D9054B01225A6630BD81685160BFE7A9
:104CD000D9685160CBE7C046AC0400202C0400200A
:104CE00010B5040000F0DCFF034B9A6E22609B6D50
:104CF000636000F0F3FF10BDAC040020024B9A6E1D
:104D000002609B6D43607047AC040020F8B504005E
:104D10000D0000F0C5FF124B996D6368C81A2A6830
:104D2000561C18D00E4EB66E2768B74205D08B427F
:104D300003D800232B6001240EE0824203D8002315
:104D40002B60012408E05B1A9B182B602000FFF702
:104D5000D5FF002400E0002400F0C0FF2000F8BDD3
:104D6000AC040020014B01225A667047AC040020BD
:104D7000042905D8002804D01031890041184A6060
:104D80007047014B586CF7E7AC040020042909D8A0
:104D9000002804D010318900411848687047024B40
:104DA000586CF7E70020F9E7AC040020014B586C81
:104DB0007047C046AC040020002802D1024B586C5A
:104DC00070470020FCE7C046AC040020064B9B6CFB
:104DD000002B07D0044B1B6E002B01D0002002E0FB
:104DE000022000E001207047AC040020044A536C0C
:104DF0009869536CD96A526C04235B1A93617047AB
:104E0000AC04002070B504000D001600FFF72EFC66
:104E100000F046FF254B5A6C230016339B009B582D
:104E2000002B2AD1214B5B6C1B19643301221A70B1
:104E3000002E26D100F052FFFFF7D0FC012E28D023
:104E400000F02EFF194B5A6C230016339B009E581E
:104E5000002E08D0002D21D0144B5A6C230016339D
:104E60009B0000219950114B586C041964340023A5
:104E7000237000F033FF300070BD00F02FFF0026DC
:104E8000DAE700F02BFF01213000FFF7CFF9012610
:104E9000D2E70028D4D100F0F8FED1E7034B596CDB
:104EA000721E230016339B005A50DCE7AC0400202E
:104EB000F8B504000F0015001E00FFF7D7FB00F047
:104EC000EFFE2B4B5A6C121964321378022B33D03D
:104ED0002749486C230016339B001A58BA431A50CE
:104EE0004A6C1219643201231370069B002B27D1E0
:104EF00000F0F4FE0027FFF771FC012F28D000F02E
:104F0000CFFE002E06D01A4B5A6C230016339B009E
:104F10009B583360164B5B6C1B1964331B78022B58
:104F20001BD00025124B586C0419643400232370E5
:104F300000F0D4FE2800F8BD00F0D0FE0027DAE72C
:104F400000F0CCFE01210698FFF770F90127D2E7A7
:104F50000028D4D100F099FED1E7054B596C23000D
:104F600016339B005A58AA435A500125DAE7C04627
:104F7000AC040020F8B504000D0016001F0000F07E
:104F80008FFE069B002B05D02B0016339B001B5970
:104F9000069A1360611964310878C0B202230B705D
:104FA000032F24D00CD8012F1AD0022F06D116358A
:104FB000AD002B5901332B5101250BE0012509E0F0
:104FC000042F06D1022817D01635AD002E51012529
:104FD00000E00125012811D000F080FE2800F8BD76
:104FE0001635AD002A5916432E510125F2E7163524
:104FF000AD002E510125EDE70025EBE76369A268BE
:10500000E1689160E268A1685160211D5A688A4296
:105010002CD0002262611A68013A1A60E36A154ACC
:10502000126D934201D9134A136513489A00D2189E
:1050300092008218536BA3609A68E2605160996095
:10504000E36A020030329900CE18B600921962610C
:105050008219126B013283191A63064B5B6CDA6A90
:10506000E36A9A42B8D200F010FEB5E7E2685A60EF
:10507000CFE7C046AC0400202C040020F0B583B07C
:1050800004000D0001921E00089F00F035FE002F65
:1050900004D02B0016339B001B593B60631964330B
:1050A0001F78FFB202221A70032E27D00CD8012ECF
:1050B0001CD0022E06D11635AD002B5901332B51D1
:1050C00001250CE001250AE0042E07D1022F1BD098
:1050D0001635AD00019B2B51012500E00125012F64
:1050E00014D000F00DFE280003B0F0BD1635AD0061
:1050F0002A59019E16432E510125F0E71635AD00C1
:10510000019B2B510125EAE70025E8E72A4B1B6E9E
:10511000002B41D16369A268E1689160E268A168EF
:105120005160261D5A68B24233D0002262611A686B
:10513000013A1A60E36A204A126D934201D91E4A6D
:1051400013651E499A00D21892008A18536BA36007
:105150009A68E26056609E60E66A0A003032B300E8
:105160009F19BF00D2196261CA19126B0132CB19A3
:105170001A63E26A104B5B6CDB6A9A42B1D9099BF5
:10518000002B02D00123099A13600B4B01225A66AF
:10519000A7E7E2685A60C8E7084B9A69E261966837
:1051A000266221001831716091601A001432A262E7
:1051B0005A6901325A61DCE7AC0400202C0400205B
:1051C000F8B506000C00150000F096FD33196433A5
:1051D0001A78022119701634A400A3590133A3517F
:1051E000012A02D000F08CFDF8BD2A4B1B6E002B6B
:1051F0003FD17369B268F1689160F268B16851603B
:10520000341D5A68A24231D0002272611A68013AF4
:105210001A60F36A1F4A126D934201D91D4A136541
:105220001D499A00D21892008A18536BB3609A688D
:10523000F26054609C60F46A0A003032A3001F19C7
:10524000BF00D2197261CA19126B0132CB191A63ED
:10525000F26A104B5B6CDB6A9A42C3D9002D01D015
:1052600001232B600B4B01225A66BBE7F2685A60A0
:10527000CAE7094B9A69F2619468346231001831C7
:10528000616091601A001432B2625A6901325A6147
:10529000DEE7C046AC0400202C04002070B50400FA
:1052A0000D0000280BD000F0FBFC631964331B7861
:1052B000022B07D0002400F011FD200070BD044B2C
:1052C0005C6CF0E764196434002323700124F2E776
:1052D000AC04002070B505000C00160000280BD0AF
:1052E00000F0DEFC1634A1004C594B59B3434B512E
:1052F00000F0F4FC200070BD014B5D6CF0E7C0468F
:10530000AC0400200D4B00225A645A651A649A6559
:105310001A659A64DA660023002B07DD074A00232A
:105320009366D3640649CB62136670479900034ABB
:105330005218002151660133EEE7C046AC0400204C
:105340002C040020074B1A681368002B06D1013388
:105350000360002B04D1D368186870470023F7E777
:105360000020FAE71C05002010B541600061914261
:105370000CD8D21A83699A4201D3012010BD011DB5
:10538000094B586800F0FDFF0020F7E79A4201D270
:10539000994206D2011D044B186800F0F2FF00206C
:1053A000ECE70120EAE7C0461C05002070B50400C8
:1053B0000D00160005E0A3699C4665442000236AA1
:1053C0009847A36959192B0032002000FFF7CCFF42
:1053D0000028F0D170BD70B505000E000C4B1B68A5
:1053E000DB68DC68201D00F0E3FF2423E35C5A0740
:1053F00007D4012293432332A354236A2000984701
:1054000070BD320029002000FFF7D0FFF5E7C0464D
:105410001C05002010B505E0DB6818680121494231
:10542000FFF7D9FF044B1B681A68002AF4D1024A1F
:1054300051681160536010BD1C05002070B5050057
:10544000FFF71CF90400074B9B68834205D8002333
:105450002B60044B9C60200070BDFFF7DBFF012335
:105460002B60F6E71C05002070B582B004000D002B
:10547000FFF7FCF801A8FFF7E1FF0600019B002BF6
:1054800023D1002D01D1A04213D2002D05D0104A06
:1054900052681268002A13D10125A11B0C4BD86851
:1054A0002A0001F0FBFBFFF799F900280AD002B0AF
:1054B00070BDFFF793F931002000FFF78CFFF6E78E
:1054C0001D00EAE700F0E1FBF1E7FFF787F9EEE7FF
:1054D0001C05002030B587B01022002102A8FEF77D
:1054E000D3FA02E0029B002B0FDA354BD86800227A
:1054F00002A901F0A4F900285FD0029B002BF1DA89
:10550000039B059904989847ECE7049C6369002B7A
:1055100002D0201D00F04CFF01A8FFF78FFF05000F
:1055200002990929E1D88900264B59588F4624222F
:10553000A35C01210B43A3540399A3699C466144D6
:10554000039B02002000FFF70FFF0028CDD024238B
:10555000E35C5A0707D4012293432332A354236AFE
:1055600020009847C1E70399A3699C4661442A003B
:105570002000FFF71BFFF2E72422A35C01218B43ED
:10558000A354B2E72422A35C01210B43A354039943
:10559000A1610918030002002000FFF7E5FEA4E75F
:1055A0002423E35C9A0704D5012293432332A354B6
:1055B0009BE7200000F006FA97E707B030BDC04631
:1055C0001C050020707D001000B583B001A8FFF716
:1055D000B9FE0199FFF748FFFFF77CFFF6E770B5CA
:1055E00000F05EFB0F4BDB68002B02D000F076FB77
:1055F00070BD0C4C26001036300000F0A9FE2500CE
:105600002435280000F0A4FE2660656000221021E9
:105610000A2000F0E1FFE0600028E7D0024901F035
:10562000EDFAE3E71C050020987D0010F0B5C646B2
:1056300000B580460F0015001E00079CFFF7CFFF46
:1056400043462360A761E661069B2362201D00F0AC
:105650008AFE002D04D02422A35C04210B43A35412
:1056600080BCB846F0BD00B583B0FFF7B8FF0A4B69
:10567000DB68002B0DD08022074B383301930323C6
:1056800000930023520005490548FEF715FE03B0BC
:1056900000BD0020FBE7C0461C050020A07D0010D7
:1056A000C9550010F0B585B003900D0016001F001D
:1056B000282000F023F9041E0BD024230022C2541A
:1056C00001900A9B00933B00320029000398FFF7EA
:1056D000ADFF200005B0F0BD00B585B0104BDB6814
:1056E000002B1BD0009101920290052902DD0020C1
:1056F00005B000BDFFF76AFB022807D0084BD86849
:1057000000230022694600F0A6FFF1E7044BD868A9
:105710000023069A694600F09EFFE9E70020E7E7CC
:105720001C05002030B585B004001D00094BD86869
:1057300000280DD0009101920294052902DC00207E
:1057400005B030BD00232A00694600F0FDFFF7E7F1
:105750000020F5E71C050020014B986B7047C04600
:105760001C0500208069704770B504000D0000F032
:1057700097FA002D07D02422A35C04210B43A354E5
:1057800000F0ACFA70BD2422A35C04218B43A35427
:10579000F6E710B5040000F083FA2423E35C5B070E
:1057A00004D4002400F09AFA200010BD0124F9E787
:1057B00010B5FFF7EEFF10BD4068704700687047F6
:1057C00010B5040000F06CFA2423E35CDB0704D47A
:1057D000002400F083FA200010BD0124F9E710B581
:1057E000040000F05DFAE46900F078FA200010BDD2
:1057F00070B504000D0000F053FAE56100F06EFA98
:1058000070BD10B584B014001A0002235B420093EF
:10581000019002910394044BD8680023694600F07C
:1058200093FF04B010BDC0461C05002010B584B025
:1058300014001A0001235B4200930190029103942B
:10584000034BD8680023694600F005FF04B010BD83
:105850001C050020024B0022DA609A637047C046A4
:105860001C05002010B50E4A530717D0D11D072381
:1058700099430C4B5B1A9B180A000B490A600020E5
:105880004860D318083B0724A3438B605860186016
:10589000981A50601360C860086110BD014BECE7B6
:1058A0007405002050C300005805002010B5124BAD
:1058B0001A001B688342FBD351685418844208D0F5
:1058C00041684418A34209D00360904200D01060A0
:1058D00010BD4068091851601000F1E7064CA4683B
:1058E000A34206D05B68C918416013681B68036057
:1058F000EBE70460E9E7C0465805002070B5041ED8
:1059000010D0030009330CD8083407231A002240B2
:10591000234207D001339B1ADA43A24212D3E41880
:1059200000E00024FEF7A2FE254B9B68002B0BD065
:10593000002C3DDB3ED0224B1869A0423CD319001D
:105940001B6806E00024EDE7FFF78CFFF0E7190085
:1059500013005A68A24202D21A68002AF7D1184AE4
:1059600092689A422AD00D6808351A680A605A6807
:10597000121B102A05D91E1972605C600A68326019
:105980000E605968401A0E4A1061D268904201D2E6
:105990000B4AD060802212060A435A6000221A6025
:1059A000074A536901335361FEF718FF280070BDA1
:1059B0000025F9E70025F7E70025F5E70025F3E7DF
:1059C0005805002070B5002807D00500083D6B6819
:1059D000002B02DA2A68002A00D070BD5B005B0849
:1059E0006B60FEF743FE6B68064C22699446634485
:1059F00023612800FFF75AFFA3690133A361FEF773
:105A0000EDFEEAE758050020014B18697047C046D3
:105A100058050020014BD8687047C0465805002043
:105A2000704770B5041E09D000200D0C230C002D0A
:105A30001DD19AB2002A0DD100281ED14C4320005E
:105A4000FFF75CFF051E03D022000021FEF71CF8C3
:105A5000280070BD0D1C8EB2A2B27243ADB29BB2D3
:105A60006B43120C9B181B0CE6D00120E4E79BB2A1
:105A7000002BFAD12B1C251CEDE70025E8E7F8B533
:105A80000700FEF7F3FD174B1B68002B04D0012520
:105A90006D420026002417E001256D4200260024F7
:105AA000FEF79CFE7E60BD60FC6000F0F9F80D4BD7
:105AB0001A693A605A697A619A69BA61DB683B612E
:105AC00000F00CF9F8BD1B68064A92689A42E7D0CC
:105AD00001345A68B24200D91600AA42F3D2150026
